:020000040800F2
:1000000090150020A9010008131A000837190008EC
:10001000111A0008CD0400084D1C00080000000063
:100020000000000000000000000000002F1B00087E
:100030006505000800000000351A0008311B0008A3
:10004000C3010008C3010008C3010008C301000880
:10005000C3010008C3010008C3010008C301000870
:10006000C3010008C3010008C3010008D10400084F
:10007000C3010008C3010008C3010008C301000850
:10008000DD040008C3010008C301000800000000EF
:10009000000000000000000000000000C301000894
:1000A000C3010008C3010008C3010008C301000820
:1000B000C3010008C3010008C3010008C301000810
:1000C000C3010008C3010008C3010008C301000800
:1000D000C3010008C3010008C301000800000000BC
:1000E000C3010008C3010008C301000800000000AC
:1000F000000000000000000000000000C301000834
:1001000000000000C3010008C3010008C30100088B
:1001100000000000000000000000000000000000DF
:10012000C3010008C3010008C3010008C30100089F
:10013000C3010008000000000000000000000000F3
:10014000000000000000000000000000C3010008E3
:10015000C3010008C3010008C3010008C30100086F
:10016000C3010008C30100080000000000000000F7
:10017000000000000000000000000000000000007F
:1001800000000000C30100080000000000000000A3
:10019000C3010008DFF80CD000F034F90048004734
:1001A000F9210008901500200648804706480047BE
:1001B000FEE7FEE7FEE7FEE7FEE7FEE7FEE7FEE717
:1001C000FEE7FEE7F91B0008950100082DE9F05F46
:1001D0000546002092469B468846064681464024B6
:1001E0001BE0284641464746224600F0B5F85346F4
:1001F0005A46C01A914110D311461846224600F0C3
:100200009CF82D1A67EB01084F4622460120002179
:1002100000F093F817EB00094E41201EA4F10104F1
:10022000DFDC484631462A464346BDE8F09F0000E1
:1002300038B5D0E90221491E01EB410102EBC101B1
:100240004268C1EB011102EB81010268C1EB0111AF
:1002500002EB8102D0E9043101EB410103EB8101A2
:100260003023A1F5527191FBF3F4174D6C4302EB6F
:10027000C41291FBF3F403FB141100921A2902DB60
:10028000124B1A4400920C2291FBF2F3104C634380
:10029000009C04EBC313009391FBF2F302FB1311D8
:1002A0000C4A08E0491E40F2A324535C6343009CBF
:1002B00004EBC31300930029F4DC0146684600F008
:1002C0005BF8009838BD00003F0C0F008051010022
:1002D00067C20300B42D000840EA01039B0703D066
:1002E00009E008C9121F08C0042AFAD203E011F875
:1002F000013B00F8013B521EF9D27047D2B201E037
:1003000000F8012B491EFBD270470022F6E710B51A
:1003100013460A4604461946FFF7F0FF204610BD73
:1003200030B504460020034600E05B1C934203D234
:10033000E05CCD5C401BF8D030BD202A04DB203AC5
:1003400000FA02F1002070479140C2F1200320FA28
:1003500003F3194390407047202A04DB203A21FA26
:1003600002F00021704721FA02F3D040C2F12002CE
:10037000914008431946704710B500683C22B0FB15
:10038000F2F302FB1303B0FBF2F00B60B0FBF2F3ED
:1003900002FB1303B0FBF2F018224B60B0FBF2F348
:1003A00002FB1303B0FBF2F0021D8B600723B2FBCC
:1003B000F3F403FB1422800040F2B55300F66C30D6
:1003C0008A61B0FBF3F2B0FBF3F403FB1400443298
:1003D00080084A61C8613B2802D3920700D0401CC4
:1003E0000022074C13460A61E25C824203D8801A5D
:1003F0005B1C0B61F8E7401CC860084610BD00009C
:10040000C02D0008064C074D06E0E06840F00103EF
:1004100094E8070098471034AC42F6D3FFF7BEFECD
:10042000102E0008302E00081CB5002001F02AFB19
:1004300005236A460749084801F052FB072001F0EE
:1004400021FB9DF80400122801D000201CBD0120D2
:100450001CBD0000AC2B0008003C004010B5002083
:1004600001F010FBB921044801F054FBBDE8104035
:10047000072001F007BB0000003C00407CB50446AB
:1004800015460E46002001F0FDFA0B208DF8000005
:10049000200C8DF80100200A8DF802008DF8034031
:1004A0000020094C8DF804000246052369462046C9
:1004B00001F016FB2B4632460021204601F010FBCE
:1004C000072001F0DFFA7CBD003C0040FEE70000A1
:1004D000014800F05DB900002C110020014800F037
:1004E00057B90000CC10002001681823CAB2103A96
:1004F000B2FBF3F2054B6FF30901032A9B5CC36562
:1005000000D9091D8165084670470000642B00086A
:1005100010B5014600208B698A6A4FF0C07453B150
:10052000B3F5005F15D072B1012A0CD0022A0AD0AF
:10053000032A09D104E01AB1012A06D0022A03D104
:10054000C96AC90100D5012010BDC96AA142FAD00B
:1005500010BD002AF7D0012AF2D0022AF3D0032AD4
:10056000F3D010BD70470000002229B101291AD034
:1005700002291BD04FF440720E490B6823F44073DC
:100580000B600B6813430B600A6822F0F8020A60E4
:100590000A68022303EBC00002430A60086840F4C3
:1005A0008030086070474FF48072E5E74FF40072C6
:1005B000E2E70000103C02401348016889050FD5AE
:1005C000016821F400710160016841F4006101607B
:1005D000016821F400610160016841F4007101606B
:1005E000016849050FD5016821F480610160016847
:1005F00041F480510160016821F48051016001687B
:1006000041F4806101607047003C024008490A687B
:1006100022F440720A600A6842F004020A600A6822
:100620004FF4803343EA002002430A607047000021
:10063000103C0240064A136823F4407313601368A9
:100640001360136843F001031360017070470000EA
:10065000103C0240084910B50C6824F440740C604A
:100660000C6844F440740C600C6844F001040C60A5
:100670000260436010BD0000103C0240074A13684E
:1006800023F440731360136843F48073136013689A
:1006900043F001031360018070470000103C0240EA
:1006A000074A136823F440731360136843F400731C
:1006B0001360136843F0010313600160704700008A
:1006C000103C02401C490868C2061C4805D5C26996
:1006D00042F01002C26110220A600A68920605D533
:1006E000C26942F00802C26120220A600A6852060A
:1006F00005D5C26942F00402C26140220A600A685C
:10070000120605D5C26942F00202C26180220A6067
:100710000A68D20506D5C26942F00102C2614FF4EF
:1007200080720A600A68920705D5C26942F0200209
:10073000C2610220086070470C3C02402800002083
:1007400070B5114904460020C86100F0E1FA064680
:100750000E4D09E0601C07D024B100F0D9FA801BCF
:10076000A04201D9032070BD2868C003F2D42868D4
:10077000C00701D001202860286810F4F970F2D079
:10078000FFF7A0FF012070BD280000200C3C0240B4
:100790002DE9F84304464FF00009CDF80090634876
:1007A0004FF41651A56D0068B0FBF1F72E6894F870
:1007B0005C10082000FA01F131420FD021680A686C
:1007C00052070BD50A6822F004020A6094F85C1004
:1007D0008840A860606D40F00100606594F85C108E
:1007E0004FF0010808FA01F0304208D02168496949
:1007F000090604D5A860606D40F00200606594F8B9
:100800005C1004208840304208D0216809688907BC
:1008100004D5A860606D40F00400606594F85C1039
:1008200010208840304218D021680968090714D583
:10083000A86020680168490304D50068000308D552
:10084000A16C07E00168C90503D4016821F0080123
:100850000160216C09B12046884794F85C10202083
:100860008840304231D021680968C9062DD5A8607A
:1008700094F8350005282068016806D0490347D55B
:10088000006800031DD4616C1CE021F016010160BA
:100890002068416921F080014161206C08B9A06C99
:1008A00020B12068016821F00801016094F85C1013
:1008B0003F208840A86084F8349084F83580216D0A
:1008C0001FE0E16B09B120468847606D00282BD0FE
:1008D000606DC00714D0052084F8350020680168D9
:1008E00021F0010101600098401C0090B84203D83B
:1008F00020680068C007F6D184F8349084F8358009
:10090000E16C002910D001B02046BDE8F043084753
:100910000168C905D5D4016821F01001016084F88F
:10092000349084F83580CCE7BDE8F88300000020DF
:100930002DE9F041044600F0EBF906465CB10025D4
:1009400084F83450022084F835002068016821F0D2
:10095000010101600DE00120BDE8F08100F0D8F94F
:10096000801B052805D920206065032084F8350008
:10097000F2E720680068C007F0D1226811682048BB
:100980000140D4E901031843D4E903363343184343
:1009900063691843A3691843E3691843236A18433A
:1009A0000843616A042903D1D4E90B1319430843AE
:1009B000106020684069666A20F0070130460E43E7
:1009C000012704280CD1A06A0643E06A40B1204602
:1009D000FFF79EFD20B14020606584F83570BAE7CE
:1009E000206846612046FFF77FFD94F85C203F2198
:1009F00091408160656584F835700020ACE70000A7
:100A00003F8010F070B5044600F082F90546601C86
:100A100002D004480078044400F07AF9401BA04258
:100A2000FAD370BD040000202DE9F04704462248A7
:100A30000F46017E01290AD00121804601764CF241
:100A400050394846FFF77CFE020003D02FE0022019
:100A5000BDE8F0874FF0FF3038602068174D01285F
:100A600001D0A6681CE0207C6168FFF7CFFD4846F6
:100A7000FFF766FE0246286820F00400286014E0B4
:100A8000217C3046FFF770FD4846FFF759FE020013
:100A9000286820F0FA00286001D03E6005E0761C4E
:100AA000D4E902100844B042EAD8FFF785FD0021DE
:100AB00088F818101046CBE728000020103C0240B0
:100AC0000348016841F000410160002070470000C8
:100AD000103C02402DE9F0471B4E05461446307E7F
:100AE0001F468946012808D0012030764CF2503844
:100AF0004046FFF725FE18B114E00220BDE8F0875C
:100B00009DB1012D16D0022D19D022463B464846F4
:100B1000FFF7A0FD4046FFF713FE0C490A6822F0DC
:100B200001020A6000213176E8E7E1B24846FFF7AA
:100B300081FDEFE7A1B24846FFF7A0FDEAE72146B5
:100B40004846FFF7ADFDE5E728000020103C0240D5
:100B5000074900200A68002A09DA054A054B0C3AC1
:100B60001360054B13600968002900DA0120704703
:100B7000103C024023016745AB89EFCD2DE9F84FCA
:100B8000DFF860B100224FF001084FF0030A4FF088
:100B90000F090BF1040E00BF0B6808FA02F42340A2
:100BA000A3426ED14D68022D01D0122D0ED1D50871
:100BB00000EB850CDCF820505607F70E09FA07F613
:100BC000B5430E69BE402E43CCF820600668550040
:100BD0000F790AFA05FC07F0030726EA0C06AF4076
:100BE000374307604E68012E05D0022E03D0112E28
:100BF00001D0122E0ED18668CF6826EA0C06AF40CF
:100C0000374387604668A6430C79C4F300149440C8
:100C100034434460C6688C6826EA0C06AC40344312
:100C2000C4604C68E40056D52F4C256845F48045D7
:100C30002560246822F0030504F4804400942B4CC2
:100C40002E19D6F8084895072F0F09FA07F5AC4377
:100C5000274DA84201D1002515E0264DA84201D11B
:100C6000012510E0244DA84201D102250BE0234DBF
:100C7000A84201D1032506E0214DA84202D1042556
:100C800001E028E00725BD402543C6F80858DBF8F9
:100C900000405D464E689C43F60300D51C432C6023
:100CA000DEF8004075464E689C43B60300D51C43F1
:100CB0002C600C4D08352C684E689C43F60200D51C
:100CC0001C432C60074D0C352C684E689C43B602C3
:100CD00000D51C432C60521C102AFFF45DAFBDE808
:100CE000F88F0000003C01404438024000300140D1
:100CF000000002400004024000080240000C0240D4
:100D0000001002400AB1816170470904FBE700004E
:100D100001488068704700000400002070B504009E
:100D200011D021684CF6CC400860216845F255503E
:100D30000860D4E9000141602168A0688860FFF77D
:100D4000E7FF054609E0012070BD00BFFFF7E0FFA7
:100D5000401B302801D9032070BD2068C0680028DE
:100D6000F4D121684AF6AA200860002070BD000076
:100D700002488168027811448160704704000020B5
:100D80000B4810B5016841F400710160016841F43D
:100D900080610160016841F480710160032000F00E
:100DA00081F8002000F006F800F024F8002010BDC3
:100DB000003C024070B50D4D04464FF47A7128781E
:100DC000B1FBF0F00A490968B1FBF0F000F09BFDBF
:100DD00048B9102C07D200222146501E00F042F8DC
:100DE00000206C6070BD012070BD00000400002078
:100DF0000000002010B5032000F054F80022114636
:100E00006FF00B0000F02EF8002211466FF00A0080
:100E100000F028F8002211466FF0090000F022F8D7
:100E200000221146501F00F01DF800221146101F2D
:100E300000F018F800221146901E00F013F800226E
:100E4000BDE810401146501E00F00CB800F01F0223
:100E5000012191404009800000F1E020C0F800111C
:100E600070470000F0B40E4B1B680C46C3F302231E
:100E7000C3F10705042D00D90425191D072901D246
:100E8000002300E0DB1E012606FA05F1491E214081
:100E900099409E40761E16403143F0BC00F0BABD2A
:100EA0000CED00E0064900F0070208684FF6FF036A
:100EB000184040EA0220034A1043086070470000CF
:100EC0000CED00E00000FA052DE9F8430446006847
:100ED0004FF00109C1074FF0000601D1400727D5A7
:100EE000DFF81C81C8F86860FFF712FF0746454D20
:100EF00005E000BFFFF70CFFC01B022857D8286889
:100F00000001F7D460688101207A41EA00703D4910
:100F100084310860C8F86890FFF7FAFE074604E0DD
:100F2000FFF7F6FEC01B022841D828680001F7D55C
:100F30002078800752D533484030016841F0805115
:100F400001600068304D00F080500090286840F447
:100F500080702860FFF7DCFE074604E0FFF7D8FE4C
:100F6000C01B022823D82868C005F7D5254D703549
:100F7000286810F4407020D0A18901F440718142AA
:100F80001BD0286820F440712048C0F8009006600B
:100F900029602868C00710D0FFF7BAFE064641F264
:100FA000883707E0FFF7B4FE801BB84202D9032060
:100FB000BDE8F88328688007F4D5E1681148C1F3DB
:100FC00001220830032A12D0016821F4F8110160CF
:100FD0002868A189C1F30B01084328602078000725
:100FE00003D50B49207CC1F8E0010020E0E702684E
:100FF000084B22F4F81219400A430260E8E70000A7
:10100000000047420038024000700040400E474256
:1010100000104742FFFCFF0F2DE9F0470E46050088
:1010200065D0DFF81481D8F80000F7B200F00F00A7
:10103000B04207D288F80070D8F8000000F00F0026
:10104000B04254D128683D4C810712D5400703D5E2
:10105000206840F4E05020602878000703D520681D
:1010600040F4604020602068A96820F0F000084348
:1010700020602878C0072DD03049686808390128D9
:1010800012D0022813D0032811D00968890700293B
:101090002DDA216821F0030101432160FFF738FEBA
:1010A000814641F2883A0EE009688903EFE7096852
:1010B0008901ECE7FFF72CFEA0EB0901514502D9AD
:1010C0000320BDE8F0872068696800F00C00B0EBF1
:1010D000810FEFD1D8F80010404601F00F01B14266
:1010E00007D90770006800F00F00B04201D001205E
:1010F000E7E72878400705D52068E96820F4E05044
:10110000084320602878000706D52068296920F464
:10111000604040EAC100206000F0B4F82168084A4D
:10112000C1F30311515CC840064908600020FFF775
:1011300041FE0020C5E70000003C024008380240A4
:10114000542B0008000000202DE9F041FFF7E0FDDE
:10115000444C0546206840F00100206005E000BFD7
:10116000FFF7D6FD401B022847D820688007F7D537
:10117000206840F080002060FFF7CAFD0546394E28
:1011800000200836306041F2883704E0FFF7C0FDE8
:10119000401BB84231D8306810F00C0FF6D1FFF781
:1011A000B7FD0546206820F45020206005E000BF10
:1011B000FFF7AEFD401B64281FD820688003F7D4DA
:1011C000FFF7A6FD0546206820F08070206004E04F
:1011D000FFF79EFD401B02280FD820688001F7D43E
:1011E000FFF796FD0546206820F08060206007E04C
:1011F000FFF78EFD401B022802D90320BDE8F081D5
:1012000020680001F4D417491748091D08601549E2
:1012100016488431086013480C30016821F4F851F5
:101220000160016821F400510160016841F41F016F
:101230000160016841F4001101600A4874300168DE
:1012400021F001010160016841F0807101600949EC
:10125000074808600020FFF7ADFD0028CED0012030
:10126000CCE70000003802401030000400300020BD
:101270000024F400000000200148006870470000CE
:1012800000000020154810B5006810F00C0214484A
:1012900013D04110042A0FD0082A0ED10F4C241F5E
:1012A0002268236802F03F025B0207D52068C0F382
:1012B0008810A0FB010106E0084610BD2168C1F3BB
:1012C0008811A1FB00010023FEF780FF2168C1F314
:1012D0000141491C4900B0FBF1F010BD0838024043
:1012E0000024F4002DE9F84F050076D02878DFF8C7
:1012F000F8B2BE4CC00749D0DBF800105846C1F325
:101300008101012908D00068C0F3810002280AD1B8
:10131000201D0068400206D52068800336D5686825
:101320000028E2D032E06868B0F5803F10D0B0F518
:10133000A02F206810D020F480302060206820F496
:10134000802020606868A0B1FFF7E2FC06460CE050
:10135000206840F48030F4E740F480202060F7E714
:10136000FFF7D6FC801B642873D820688003F7D56C
:101370000CE0FFF7CDFC064605E000BFFFF7C8FC18
:10138000801B6428F0D820688003F7D42878DFF821
:10139000608280074FF000093ED5DBF80010584608
:1013A00011F00C0F09D00068C0F3810002280BD1A6
:1013B0008D48001F0068400206D42068800715D5BC
:1013C000E868012809D111E0E868B8B10120C8F83F
:1013D0000000FFF79DFC064605E002E1FFF798FCE0
:1013E000801B0228C0D820688007F7D520682969AB
:1013F00020F0F80040EAC10020600DE0C8F800903D
:10140000FFF786FC064604E0FFF782FC801B0228FB
:101410001FD820688007F7D42878000722D5724E9D
:10142000744869696C3671B101210160FFF770FC85
:10143000074604E0FFF76CFCC01B022809D830689F
:101440008007F7D50EE0C0F80090FFF761FC074673
:1014500005E083E0FFF75CFCC01B02287ED8306803
:101460008007F7D42878400768D5DFF87CA10027EB
:101470000AF1380ADAF80000C0000BD4DAF80010DC
:1014800041F08051CAF80010DAF80000012700F09E
:1014900080500090584E3068C00510D4306840F439
:1014A00080703060FFF734FC009005E0FFF730FCFF
:1014B0000099401A022851D83068C005F6D54A4E26
:1014C000A868683601280FD00528306810D020F0B1
:1014D00001003060306820F004003060A868B8B1C6
:1014E000FFF716FC00900FE0306840F00100F4E7D1
:1014F00040F004003060F7E7FFF70AFC0099411A5A
:1015000041F28830814264D830688007F4D50EE01B
:10151000FFF7FEFB009007E0FFF7FAFB0099411A86
:1015200041F28830814254D830688007F4D42FB11A
:10153000DAF8001021F08051CAF80010A869C0B391
:10154000DBF80010C1F3810102294AD00228484685
:1015500007D0C8F86000FFF7DBFB00E039E0054684
:101560003AE04746C8F86000FFF7D2FB064604E0C1
:10157000FFF7CEFB801B02282BD820688001F7D410
:10158000D5E907010843A96A1C4A490802EB014151
:101590006A6A41EA8211084395F82C1040EA016119
:1015A0001148001F016001203866FFF7B1FB0546B6
:1015B00005E014E0FFF7ACFB401B022809D82068C7
:1015C0008001F7D50BE000BFFFF7A2FB401B02280C
:1015D00002D90320BDE8F88F20688001F4D40020F0
:1015E000F8E70120F6E70000083802400038024022
:1015F00000004742800E4742007000400000FFFF9D
:1016000010B500680B4641680D480140080CD870C1
:10161000C1F304245C7001F03F049C70C1F34231BB
:10162000197052B900F007FAD870587800F003FA30
:101630005870987800F0FFF99870002010BD0000F5
:101640003FFFFF0010B50B460168896A59600168C9
:101650000969C1F30E019960006801680E480140F4
:10166000C1F305401870C1F306245C7001F07F04DB
:101670009C70402404EA1141D97052B900F0DBF9A2
:101680001870587800F0D7F95870987800F0D3F9AE
:101690009870002010BD00007F7F7F0070B50400AF
:1016A00002D0607F10B106E0012070BD00202077DD
:1016B000204600F049F8022060772168CA2048627D
:1016C000216853204862204600F0BEF9FF25042619
:1016D00018BB206881681B4A1140816021688868B6
:1016E00062681043D4E904231A43104388602168D8
:1016F000E068086120680169228941EA02410161CC
:101700002068C16821F08001C1602068806880067F
:1017100007D4204600F024F818B1206845626677A7
:10172000C2E72068016C21F4802101642068016C0B
:10173000A26911430164206845620120607700209E
:1017400070BD0000BFFF8FFF00680349884202D1CF
:101750000249012008607047002800403C0E4742C3
:1017600070B504460068C16821F0A001C160FFF7B0
:10177000CFFA05464FF47A7607E000BFFFF7C8FAC4
:10178000401BB04201D9032070BD2068C0688006AC
:10179000F4D5002070BD70B5040005D00025A56209
:1017A00094F8510010B106E0012070BD84F850504B
:1017B000204600F031F8022084F8510020680168CA
:1017C00021F040010160D4E901010843D4E903128A
:1017D0001143084361690843218B01F400710843F8
:1017E000E1690843216A0843A16A08432168086047
:1017F000A069042101EA1040616A08432168486039
:101800002068C16921F40061C1616565012084F827
:101810005100002070BD0000F0B506460068264962
:1018200087B0884245D125480024016841F4004131
:1018300001600068694600F4004005904FF4E050F4
:1018400000900220CDE901040320039006200490BB
:101850001B48FFF793F91C4D1A48E5E802044020A5
:10186000070191C5184845F81449AC61EC612C6238
:101870006C62FFF75DF818B19A2114A000F0E7F947
:10188000B564AE630F48184D7838C5E90004AC6004
:10189000C5E903476C61AC61EC612C6228466C625F
:1018A000FFF746F818B1AC2108A000F0D0F9F564B4
:1018B000AE6307B0F0BD0000003C0040403802407D
:1018C0000008024088600240CC1000202E2E2F53CA
:1018D00072632F73746D3332663478785F68616C2D
:1018E0005F6D73702E6300002C1100204FF0E0211B
:1018F0000428086903D020F004000861704740F014
:101900000400FAE7704710B5401EB0F1807F01D3A4
:10191000012010BD4FF0E02460610F21601700F03E
:1019200079F80020A06107202061002010BD10B5CB
:10193000FFF7E8FF10BDFEE707490968C9070AD0AD
:10194000054980390968C90705D04FF060410A6828
:10195000002AFCD008707047800E00E030B51A48AD
:1019600087B00024016841F004010160016801F0C2
:1019700004010591016841F080010160016801F0F6
:1019800080010591016841F001010160016801F0E9
:1019900001010591016841F00201016000680B4DF1
:1019A00000F002000590012270212846FFF7AAF9F5
:1019B000702000900120CDE9010469462846039477
:1019C000FFF7DCF807B030BD3038024000040240B9
:1019D0000E4810B50C4901604FF48271416000213E
:1019E0008160C1604FF400720161C0E905121822E4
:1019F000C0E90721416281620A21C162FFF7CBFE83
:101A0000002800D0FEE710BD003C0040740000201C
:101A1000FEE770470907090E002806DA00F00F00FC
:101A200000F1E02080F8141D704700F1E02080F8FC
:101A3000001470477047010901EB810100F00F00AD
:101A400000EB4100C0B2704770B504460068C16841
:101A5000490614D44FF0FF31C160FFF759F905462C
:101A60004FF47A7607E000BFFFF752F9401BB0420F
:101A700001D9032070BD2068C0684006F4D500205D
:101A800070BD000030B51349134C00F00703072860
:101A900016D01248026822F040020260026822F06A
:101AA0003B0504F1200252F823202A430260026819
:101AB00042F0400202600220401C6428FCDB03E08C
:101AC0000220401C6428FCDB086854F823201043E3
:101AD000086030BD180402406C2B0008003C004038
:101AE00030B5046844F04004046000250FE08468C9
:101AF000A407FCD519B111F8014B047300E005737C
:101B00008468E407FCD0047B0AB102F8014B5B1E39
:101B1000EDD230BD026842F0400202608268920756
:101B2000FCD501738168C907FCD0007B7047704702
:101B300010B5FFF71DF9BDE81040FFF7F8BE000033
:101B400030B52B4897B00025016841F08051016005
:101B5000006800F0805016902648016821F440414A
:101B600041F4004101600068022400F440401690F6
:101B70000D2000904FF48030019001200290CDE9BB
:101B80000504800507900420A821CDE908010A90EA
:101B900007200B906846FFF7A5FB00B1FEE70CA9F4
:101BA0000F2081E831004FF4A050CDE90F0502214C
:101BB0000CA8FFF731FA00B1FEE74FF480701490E3
:101BC000119411A8FFF780F900B1FEE7FFF754FB6D
:101BD0004FF47A71B0FBF1F0FFF795FE0420FFF7A8
:101BE00085FE00221146501EFFF73CF917B030BDAC
:101BF00040380240007000401048016841F4700114
:101C000001600F48016841F0010101600C4A0021A8
:101C10000832116002680B4B1A400260031D0A4A29
:101C20001A60026822F48022026005480C300160CC
:101C300002495806803908607047000088ED00E0CE
:101C400000380240FFFFF6FE10300024FEE7FEE7FA
:101C50000FB4054B10B503A9044A029800F018F818
:101C600010BC5DF814FB0000F520000820000020E7
:101C700002E008C8121F08C1002AFAD17047704755
:101C8000002001E001C1121F002AFBD170470000B3
:101C90002DE9FF4F8DB00F460546002606E02528AA
:101CA0000BD0DDE90F1290476D1C761C28780028B8
:101CB000F5D111B03046BDE8F08F0024A246A14610
:101CC0000122EC4900E0044315F8013F203B02FAF1
:101CD00003F00842F7D128782A2810D06FF02F029D
:101CE0002878A0F13001092914D80AEB8A0102EB07
:101CF000410144F0020400EB010A6D1CF0E701CF42
:101D00005FEA000A03D544F40054CAF1000A44F023
:101D100002046D1C28782E2817D115F8010F44F005
:101D200004042A280ED06FF02F022878A0F1300189
:101D300009290AD809EB890102EB410100EB0109ED
:101D40006D1CF2E757F8049B6D1C28786C280FD0A7
:101D500006DC4C2817D068280DD06A2814D104E07E
:101D6000742810D07A280FD10DE044F400140AE052
:101D700044F4801401E044F440146978814202D1B3
:101D800004F580146D1C6D1C2A786E2A1FD00CDCA3
:101D9000632A31D004DC002A8BD0582A11D1A3E069
:101DA000642A68D0692A0CD165E0732A2ED004DC3D
:101DB0006F2A73D0702A04D19BE0752A6FD0782ADD
:101DC0006ED01046DDE90F129047761C50E1C4F347
:101DD0000250022806D0032809D0042801CF09D0D8
:101DE000066045E101CFF117C0E9006140E101CF94
:101DF00006803DE106703BE117F8040B8DF800000A
:101E000000208DF80100EB46012003E057F804BBE9
:101E10004FF0FF3061074FF0000102D40DE008F1F0
:101E20000101884649450FDA8045F8DB1BF80810A8
:101E30000029F4D108E008F1010188468142FADB6B
:101E40001BF808100029F6D1DDE90F23AAEB0800E2
:101E50008146214600F036F9304400EB080604E0E4
:101E6000DDE90F121BF8010B9047B8F10108F7D21A
:101E700021464846F7E00A21C4F302534FF0000B15
:101E80000891022B04D001CFC117032B09D00AE01F
:101E9000FF1D27F00707F7E8020108E032E01FE026
:101EA00020E000B2C117042B01D140B2C117031EBC
:101EB00071F1000307DA4FF0000CD0EB0C006CEB73
:101EC00001012D2302E0230504D52B238DF82430B6
:101ED000012303E0E30701D02023F7E7984658E009
:101EE0000A2110E010210EE010204FF0000B0890A6
:101EF0000CE010214FF0000B44F004044FF00809EF
:101F0000089103E008214FF0000B0891C4F302533D
:101F1000022B04D001CF0021032B06D006E0FF1DC9
:101F200027F00707F7E8020103E080B2042B00D195
:101F3000C0B24FF0000823072BD5702A07D0DDF878
:101F400020C08CF0100C5CEA0B0C05D00EE0402396
:101F50008DF82430012308E050EA010306D0302335
:101F60008DF824308DF8252002239846DDF820C016
:101F70008CF0080C5CEA0B0C0BD150EA010301D188
:101F8000630706D530238DF824304FF00108A9F1FE
:101F90000109582A04D038A20B9208AA0A920BE031
:101FA0003AA2F9E75B46089AFEF710F90B9B9B5C97
:101FB0000A9A521E0A92137050EA0102F2D10A984C
:101FC000ADEB000000F1200B600702D524F4803453
:101FD00001E04FF00109D94502DDA9EB0B0000E05B
:101FE000002000EB0B0141440890AAEB010AE0033A
:101FF00006D4DDE90F232146504600F063F806447D
:102000004FF0000908E009A911F80900DDE90F12F5
:10201000904709F10109761CC145F4DBE0030CD5BA
:10202000DDE90F232146504600F04CF8064404E059
:10203000DDE90F1230209047761C0899481E089061
:102040000029F5DC08E00A980A990078491C0A91F1
:10205000DDE90F129047761CBBF10001ABF1010BDB
:10206000F1DC21465046DDE90F2300F019F8064463
:102070006D1C1BE609280100303132333435363708
:1020800038396162636465660000000030313233C4
:102090003435363738394142434445460000000064
:1020A0002DE9F041044600251E461746880404D455
:1020B00005E039462020B0476D1C641EF9D528463E
:1020C000BDE8F0812DE9F041044600251E4690460A
:1020D000C80301D5302700E02027880404D505E097
:1020E00041463846B0476D1C641EF9D52846BDE808
:1020F000F0810000054A914202D0054A914201D187
:10210000FFF71ABC4FF0FF3070470000200000209E
:10211000240000202DE9F04397B000220EA91248B8
:10212000FFF790FA002214A90F48FFF769FA9DF80B
:1021300053409DF838809DF839709DF83A609DF8BD
:1021400052909DF851502C2168466434FEF7DDF81A
:102150006D1ECDE904548DE8C0036846FEF768F8AB
:1021600017B0BDE8F08300005400002010B504460D
:10217000FEF7EAFF4FF0E021002008614861886126
:1021800072B6606803490C60216881F30888BDE875
:102190001040004708ED00E030B5DC0800EB840497
:1021A0005D07646CED0EEC4003F00F0304F00F04C8
:1021B00000EB83001470406808601078C0F3C00022
:1021C00030BD30B591F84C20012303EAD20301EB76
:1021D00083035207D20E0F2595405C6C40F0080037
:1021E000AC43904004435C6411F84C0F401C00F079
:1021F0000F00087030BD000096B0C3480068FEF7BD
:10220000BFFDFFF79DFC00F0FDFB054600F026FC3E
:102210000146BEA0FFF71CFD4FF4FA70FEF7F2FB7B
:10222000FFF79CFBC0484FF000084446016841F4AA
:10223000001101600068424600F400100190414620
:102240000B20FEF70FFE0B20FEF700FE00221146CA
:102250001020FEF707FE1020FEF7F8FDFFF7B8FB91
:10226000B348B2494FF0FF0BC0E900147F218160F1
:10227000C0E903B444618461FFF710FA00B1FEE7DE
:10228000AB48AC490C3801600421416040F6FF7155
:102290008160FEF743FD00B1FEE7A448A64C503034
:1022A000A0600068A0F54851F23917D0A3A000BF84
:1022B000FFF7CEFCFFF72EFFA16891F84C2002F04B
:1022C0000F0201EB820250602846FFF77AFF0026DA
:1022D000042D2ED2DFE805F02D2D04049EA0E7E7A3
:1022E000A0680126DFF8889290F84C5000272B4612
:1022F00004AA03A9A068FFF74FFF38B19DF81000AA
:1023000000F00700022803D0032801D0002610E0C7
:10231000FFF700FF0399411A494500D900266D1EB9
:102320007F1C05F00F05042FE1DB16B191A0FFF72C
:102330008FFC9F486060A14601690AAA9D4800F091
:1023400061FA9DA0FFF784FC10220AA86168FDF7DE
:10235000E7FF002849D00025A0A000BFFFF778FCC8
:10236000A7A0FFF775FC00F019FB040002D0ABA09A
:10237000FFF76EFC00F038FB070002D0ACA0FFF7BF
:1023800067FC6420FEF73EFB56B1002D7DD0ADA06A
:10239000FFF75EFC6420FEF735FB8648FFF7E6FE9C
:1023A000B24EDFF8CCA23C4277D0B2A0FFF750FC8F
:1023B000FEF7CEFB02201390012011900520129011
:1023C000CDF83C80B3A0FFF743FC6420FEF71AFB76
:1023D0000EA90FA8FEF728FB50B1B7A00E99FFF782
:1023E00037FC6420FEF70EFB57E00125BBA0B5E7E4
:1023F000C2A0FFF72DFC6420FEF704FB0024FEF7CB
:1024000013F8202201A9C948FEF738F8DFF8208127
:10241000574608F1780816E020050AD1C4A0FFF756
:1024200017FC43494FF48052783104F58820FEF7B9
:1024300025F8C4F30B01002358F80120E11902200C
:10244000FEF748FB241D0598A042E5D8FEF706F8E4
:102450008DF81CB0BDA0FFF7FBFB6420FEF7D2FA9D
:10246000002401AFC3A0395DFFF7F2FB641C102C00
:10247000F8DB38A0FFF7ECFB6420FEF7C3FA00247A
:102480000023A1193A59022000E028E0FEF722FBC0
:10249000241D202CF4D3FEF713FBC9F8006031692A
:1024A0004C460AAA5646504600F0ACF9B3A0FFF7D6
:1024B000CFFB10220AA82168FDF732FFC0B1B6A0F9
:1024C000FFF7C6FB5DB15FA0FFF7C2FB6420FEF71C
:1024D00099FA3848FFF74AFEB648FFF7B9FBB6A0AD
:1024E000FFF7B6FB4FF47A742046FEF78BFAFBE752
:1024F000B6A0FFF7ADFBBBA0FFF7AAFB6420FEF779
:1025000081FA3046E6E7000008ED00E03E494E461D
:102510004F204C617374207265736574206361751C
:1025200073653A2025730A003038024000280040C5
:102530005400002000300040100000203E5741525F
:102540004E2052544320756E696E697469616C69DE
:102550007A65642E0A0000003E494E464F205254D0
:102560004320696E697469616C697A65642E0A003A
:10257000805101003E4352495420576520726561E5
:102580006C6C79206861766520612070726F626C76
:10259000656D20776974682074686573652077615C
:1025A000746368646F67207265736574732E0A00C4
:1025B000E0FF0708004004083E494E464F204368AC
:1025C00065636B696E67206261636B757020666915
:1025D000726D776172652E0A000000003E43524919
:1025E00054204261636B7570206669726D77617209
:1025F0006520636F72727570742121210A000000DA
:102600003E494E464F20436865636B696E67204FB5
:10261000544120736C6F742E0A0000003E494E46F0
:102620004F204F54412076616C69642E0A000000EF
:102630003E494E464F204F54412052656164792EE9
:102640000A0000003E494E464F204A756D70696E83
:102650006720746F206261636B7570206170706CAD
:1026600069636174696F6E0A00000000E0FF03088F
:10267000004000083E494E464F20506572666F721A
:102680006D696E67204F544120696E7374616C6C84
:102690002E0A00003E494E464F2045726173696E16
:1026A0006720464C41534820736563746F727320F2
:1026B00031202D20350A00003E45525220457261DE
:1026C0007365206572726F722120536563746F7237
:1026D000206572726F723A2025640A003E494E46A8
:1026E0004F204261636B7570206669726D7761720D
:1026F000652076616C69642E0A0000003E494E46F2
:102700004F20636F7079696E67206669726D7761BB
:1027100072652066726F6D2065787465726E616C8B
:1027200020666C6173682E0A00000000E0FF07005D
:102730003E494E464F20636F7079696E67206E6523
:10274000787420626C6F636B0A0000003E494E464D
:102750004F20636F7079696E67206669726D77616B
:102760007265206865616465722E204D4435203D98
:102770002000000025303278000000003E494E461F
:102780004F20436865636B696E67206669726D7779
:102790006172652E0A0000003E435249542046698A
:1027A000726D7761726520636F727275707421212A
:1027B000210A0000CC2D0008436F6D6D6974696EAD
:1027C000672073657070756B750A00003E494E4650
:1027D0004F204669726D776172652076616C69641D
:1027E0002E0A00003E494E464F204A756D70696EB4
:1027F0006720746F206170706C69636174696F6EBB
:102800000A000000002300F001B800002DE9FF4F8E
:10281000ADF5217D14464FF480752A465B495BA8CF
:10282000FDF75AFD2A465A491BA8FDF755FD5948A0
:102830002060594860605748C043A0605648C04374
:10284000E060A298012101EBC0004FF0604100E080
:10285000401CB1EBC05FFBD1C0080490A298C0003F
:1028600000259E9089E000BF05F140000790A299E5
:1028700088421FD940210BA8FDF747FDA298461BAF
:1028800011D4A4980028A19805D0A49B28443246CE
:102890000BA9984704E0411932460BA8FDF71CFD2F
:1028A0000BA98020885504990798884211D99E98D1
:1028B00019900EE0A4980028A19805D0A49B284464
:1028C00040220BA9984704E0411940220BA8FDF7CC
:1028D00003FD26689D9661680691A5680895E068E5
:1028E0000DF12C0A00230DF5B67B0DF16C0E9C90BA
:1028F00001E0102B06D201EA050220EA01073A4363
:102900001F461AE0202B08D200EA010225EA000740
:102910003A4303EB83077F1C0DE0302B06D281EA9C
:102920000502424003EB43077F1D04E061EA000219
:102930006A40C3EBC30707F00F075EF823805AF81D
:10294000277032441BF82360474481463A4476425C
:10295000F24128460D4651195B1C4E46402BC8D308
:102960009D9A4A442260069A11446160089929445C
:10297000A1609C990844E060079D04988542FFF49B
:1029800073AF0DF5257DBDE8F08F0000B42B000876
:10299000B42C00080123456789ABCDEF00B58DB09D
:1029A000FDF742FD202204A90D48FDF767FD002038
:1029B00003900090019002900A4B6A464FF48820E1
:1029C0000899FFF723FFFDF749FD102204A9684687
:1029D000FDF7A6FC10B100200DB000BD0120FBE703
:1029E000E0FF07007D040008054904480860007EF8
:1029F00008B100207047012070470000E0FF030885
:102A00001C00002014490868002801DA01201EE09B
:102A10000868400001D5022019E00868800001D54F
:102A2000032014E00868C00001D504200FE0086806
:102A3000000101D505200AE00868400101D5062003
:102A400005E00868800101D5072000E000200A6841
:102A500042F080720A6070477438024001460CA050
:102A6000082906D2DFE801F00406080A0C0E10124D
:102A700008A0704709A070470CA0704711A07047CC
:102A800017A070471AA0704725A070472BA0704769
:102A900054424400554E4B4E4F574E004C4F575FDB
:102AA000504F5745525F52455345540057494E4485
:102AB0004F575F5741544348444F475F5245534532
:102AC00054000000494E444550454E44454E545F25
:102AD0005741544348444F475F52455345540000C3
:102AE000534F4654574152455F5245534554000099
:102AF000504F5745522D4F4E5F5245534554202855
:102B0000504F5229202F20504F5745522D444F5798
:102B10004E5F52455345542028504452290000002E
:102B200045585445524E414C5F52455345545F50B1
:102B3000494E5F52455345540000000042524F57E2
:102B40004E4F55545F52455345542028424F522909
:102B5000000000000000000000000000010203046B
:102B6000060708090006101600061016600010007F
:102B70005000200030004000700000007000000095
:102B800070000000700000007000000018000000DD
:102B90001B000000380000000000000000000000E2
:102BA000000000000000000000000000AB0000007A
:102BB00000000000070000000C00000011000000F1
:102BC00016000000070000000C00000011000000CB
:102BD00016000000070000000C00000011000000BB
:102BE00016000000070000000C00000011000000AB
:102BF0001600000005000000090000000E000000A3
:102C00001400000005000000090000000E00000094
:102C10001400000005000000090000000E00000084
:102C20001400000005000000090000000E00000074
:102C300014000000040000000B0000001000000061
:102C400017000000040000000B000000100000004E
:102C500017000000040000000B000000100000003E
:102C600017000000040000000B000000100000002E
:102C700017000000060000000A0000000F0000001E
:102C800015000000060000000A0000000F00000010
:102C900015000000060000000A0000000F00000000
:102CA00015000000060000000A0000000F000000F0
:102CB0001500000078A46AD756B7C7E8DB70202457
:102CC000EECEBDC1AF0F7CF52AC68747134630A8AC
:102CD000019546FDD8988069AFF7448BB15BFFFF43
:102CE000BED75C892211906B937198FD8E4379A6B3
:102CF0002108B44962251EF640B340C0515A5E26F1
:102D0000AAC7B6E95D102FD65314440281E6A1D8B4
:102D1000C8FBD3E7E6CDE121D60737C3870DD5F44D
:102D2000ED145A4505E9E3A9F8A3EFFCD9026F6752
:102D30008A4C2A8D4239FAFF81F6718722619D6D96
:102D40000C38E5FD44EABEA4A9CFDE4B604BBBF6D0
:102D500070BCBFBEC67E9B28FA27A1EA8530EFD49F
:102D6000051D880439D0D4D9E599DBE6F87CA21F8B
:102D70006556ACC4442229F497FF2A43A72394AB99
:102D800039A093FCC3595B6592CC0C8F7DF4EFFFA7
:102D9000D15D84854F7EA86FE0E62CFE144301A32D
:102DA000A111084E827E53F735F23ABDBBD2D72A25
:102DB00091D386EB1F1C1F1E1F1E1F1F1E1F1E1FD1
:102DC0001F1D1F1E1F1E1F1F1E1F1E1F576879203D
:102DD0006172652077652068657265212121200A6E
:102DE0004F48204D414E204920414D204E4F542008
:102DF000474F4F44205749544820434F4D50555456
:102E000045522E20504C5A20544F2048454C5000DB
:102E1000302E00080000002028000000701C000870
:102E2000582E00082800002068150000801C0008AB
:102E30000024F40001000000100000000000000069
:102E40000000000000000000000000000000000082
:082E500000000000000000007A
:040000050800019559
:00000001FF
